{
  "_format": "hh-sol-artifact-1",
  "contractName": "Upload",
  "sourceName": "contracts/Upload.sol",
  "abi": [
    {
      "inputs": [],
      "stateMutability": "nonpayable",
      "type": "constructor"
    },
    {
      "anonymous": false,
      "inputs": [
        {
          "indexed": true,
          "internalType": "address",
          "name": "user",
          "type": "address"
        },
        {
          "indexed": false,
          "internalType": "string",
          "name": "decision_tree",
          "type": "string"
        },
        {
          "indexed": false,
          "internalType": "string",
          "name": "random_forest",
          "type": "string"
        },
        {
          "indexed": false,
          "internalType": "string",
          "name": "naive_bayes",
          "type": "string"
        }
      ],
      "name": "DiseasePredictionsStored",
      "type": "event"
    },
    {
      "anonymous": false,
      "inputs": [
        {
          "indexed": true,
          "internalType": "address",
          "name": "user",
          "type": "address"
        },
        {
          "indexed": false,
          "internalType": "string",
          "name": "record",
          "type": "string"
        },
        {
          "indexed": false,
          "internalType": "string",
          "name": "feedback",
          "type": "string"
        },
        {
          "indexed": false,
          "internalType": "string",
          "name": "userName",
          "type": "string"
        }
      ],
      "name": "FeedbackProvided",
      "type": "event"
    },
    {
      "anonymous": false,
      "inputs": [
        {
          "indexed": true,
          "internalType": "address",
          "name": "user",
          "type": "address"
        },
        {
          "indexed": false,
          "internalType": "string",
          "name": "result",
          "type": "string"
        }
      ],
      "name": "PythonResultStored",
      "type": "event"
    },
    {
      "inputs": [
        {
          "internalType": "address",
          "name": "",
          "type": "address"
        },
        {
          "internalType": "uint256",
          "name": "",
          "type": "uint256"
        }
      ],
      "name": "accessList",
      "outputs": [
        {
          "internalType": "address",
          "name": "user",
          "type": "address"
        },
        {
          "internalType": "bool",
          "name": "access",
          "type": "bool"
        }
      ],
      "stateMutability": "view",
      "type": "function"
    },
    {
      "inputs": [
        {
          "internalType": "string",
          "name": "url",
          "type": "string"
        }
      ],
      "name": "add",
      "outputs": [],
      "stateMutability": "nonpayable",
      "type": "function"
    },
    {
      "inputs": [
        {
          "internalType": "address",
          "name": "user",
          "type": "address"
        }
      ],
      "name": "allow",
      "outputs": [],
      "stateMutability": "nonpayable",
      "type": "function"
    },
    {
      "inputs": [
        {
          "internalType": "address",
          "name": "userAddress",
          "type": "address"
        }
      ],
      "name": "display",
      "outputs": [
        {
          "internalType": "string[]",
          "name": "",
          "type": "string[]"
        }
      ],
      "stateMutability": "view",
      "type": "function"
    },
    {
      "inputs": [
        {
          "internalType": "uint256",
          "name": "",
          "type": "uint256"
        }
      ],
      "name": "feedbackList",
      "outputs": [
        {
          "internalType": "address",
          "name": "user",
          "type": "address"
        },
        {
          "internalType": "string",
          "name": "record",
          "type": "string"
        },
        {
          "internalType": "string",
          "name": "feedback",
          "type": "string"
        },
        {
          "internalType": "string",
          "name": "userName",
          "type": "string"
        }
      ],
      "stateMutability": "view",
      "type": "function"
    },
    {
      "inputs": [
        {
          "internalType": "address",
          "name": "userAddress",
          "type": "address"
        }
      ],
      "name": "getDiseasePredictions",
      "outputs": [
        {
          "internalType": "string",
          "name": "",
          "type": "string"
        },
        {
          "internalType": "string",
          "name": "",
          "type": "string"
        },
        {
          "internalType": "string",
          "name": "",
          "type": "string"
        }
      ],
      "stateMutability": "view",
      "type": "function"
    },
    {
      "inputs": [
        {
          "internalType": "uint256",
          "name": "index",
          "type": "uint256"
        }
      ],
      "name": "getFeedback",
      "outputs": [
        {
          "internalType": "address",
          "name": "",
          "type": "address"
        },
        {
          "internalType": "string",
          "name": "",
          "type": "string"
        },
        {
          "internalType": "string",
          "name": "",
          "type": "string"
        },
        {
          "internalType": "string",
          "name": "",
          "type": "string"
        }
      ],
      "stateMutability": "view",
      "type": "function"
    },
    {
      "inputs": [],
      "name": "getFeedbackCount",
      "outputs": [
        {
          "internalType": "uint256",
          "name": "",
          "type": "uint256"
        }
      ],
      "stateMutability": "view",
      "type": "function"
    },
    {
      "inputs": [
        {
          "internalType": "address",
          "name": "userAddress",
          "type": "address"
        }
      ],
      "name": "getName",
      "outputs": [
        {
          "internalType": "string",
          "name": "",
          "type": "string"
        }
      ],
      "stateMutability": "view",
      "type": "function"
    },
    {
      "inputs": [],
      "name": "owner",
      "outputs": [
        {
          "internalType": "address",
          "name": "",
          "type": "address"
        }
      ],
      "stateMutability": "view",
      "type": "function"
    },
    {
      "inputs": [
        {
          "internalType": "string",
          "name": "record",
          "type": "string"
        },
        {
          "internalType": "string",
          "name": "feedback",
          "type": "string"
        },
        {
          "internalType": "string",
          "name": "userName",
          "type": "string"
        }
      ],
      "name": "provideFeedback",
      "outputs": [],
      "stateMutability": "nonpayable",
      "type": "function"
    },
    {
      "inputs": [
        {
          "internalType": "address",
          "name": "user",
          "type": "address"
        }
      ],
      "name": "revokeAccess",
      "outputs": [],
      "stateMutability": "nonpayable",
      "type": "function"
    },
    {
      "inputs": [
        {
          "internalType": "string",
          "name": "decision_tree",
          "type": "string"
        },
        {
          "internalType": "string",
          "name": "random_forest",
          "type": "string"
        },
        {
          "internalType": "string",
          "name": "naive_bayes",
          "type": "string"
        }
      ],
      "name": "setDiseasePredictions",
      "outputs": [],
      "stateMutability": "nonpayable",
      "type": "function"
    },
    {
      "inputs": [
        {
          "internalType": "string",
          "name": "name",
          "type": "string"
        }
      ],
      "name": "setName",
      "outputs": [],
      "stateMutability": "nonpayable",
      "type": "function"
    },
    {
      "inputs": [
        {
          "internalType": "string",
          "name": "result",
          "type": "string"
        }
      ],
      "name": "setPythonResult",
      "outputs": [],
      "stateMutability": "nonpayable",
      "type": "function"
    },
    {
      "inputs": [],
      "name": "shareAccess",
      "outputs": [
        {
          "components": [
            {
              "internalType": "address",
              "name": "user",
              "type": "address"
            },
            {
              "internalType": "bool",
              "name": "access",
              "type": "bool"
            }
          ],
          "internalType": "struct Upload.Access[]",
          "name": "",
          "type": "tuple[]"
        }
      ],
      "stateMutability": "view",
      "type": "function"
    },
    {
      "inputs": [
        {
          "internalType": "address",
          "name": "",
          "type": "address"
        }
      ],
      "name": "users",
      "outputs": [
        {
          "internalType": "string",
          "name": "name",
          "type": "string"
        },
        {
          "internalType": "string",
          "name": "pythonResult",
          "type": "string"
        },
        {
          "internalType": "string",
          "name": "decision_tree",
          "type": "string"
        },
        {
          "internalType": "string",
          "name": "random_forest",
          "type": "string"
        },
        {
          "internalType": "string",
          "name": "naive_bayes",
          "type": "string"
        }
      ],
      "stateMutability": "view",
      "type": "function"
    }
  ],
  "bytecode": "0x608060405234801561001057600080fd5b5033600360006101000a81548173ffffffffffffffffffffffffffffffffffffffff021916908373ffffffffffffffffffffffffffffffffffffffff160217905550612177806100616000396000f3fe608060405234801561001057600080fd5b506004361061010b5760003560e01c80638da5cb5b116100a2578063bc8bef8111610071578063bc8bef81146102e9578063c47f002714610307578063d4e8f88714610323578063eb39113f1461033f578063ff9913e81461036f5761010b565b80638da5cb5b146102495780639fc03fd414610267578063a87430ba14610299578063b0c8f9dc146102cd5761010b565b80635d837247116100de5780635d837247146101995780635fd4b08a146101cc57806370c2b419146101fc57806385e685311461022d5761010b565b80631106a382146101105780632857430514610143578063347f95061461015f57806338c5c86b1461017b575b600080fd5b61012a600480360381019061012591906117f5565b61038b565b60405161013a94939291906118fc565b60405180910390f35b61015d60048036038101906101589190611a8b565b61063a565b005b61017960048036038101906101749190611a8b565b610793565b005b610183610878565b6040516101909190611b41565b60405180910390f35b6101b360048036038101906101ae91906117f5565b610885565b6040516101c394939291906118fc565b60405180910390f35b6101e660048036038101906101e19190611b88565b610a7d565b6040516101f39190611bb5565b60405180910390f35b61021660048036038101906102119190611bd7565b610b50565b604051610224929190611c32565b60405180910390f35b61024760048036038101906102429190611b88565b610bba565b005b610251610d48565b60405161025e9190611c5b565b60405180910390f35b610281600480360381019061027c9190611b88565b610d6e565b60405161029093929190611c76565b60405180910390f35b6102b360048036038101906102ae9190611b88565b610f73565b6040516102c4959493929190611cc2565b60405180910390f35b6102e760048036038101906102e29190611d38565b611251565b005b6102f16112d5565b6040516102fe9190611e7d565b60405180910390f35b610321600480360381019061031c9190611d38565b6113de565b005b61033d60048036038101906103389190611d38565b61143d565b005b61035960048036038101906103549190611b88565b6114ea565b6040516103669190611fab565b60405180910390f35b61038960048036038101906103849190611b88565b61160a565b005b6000606080606060028054905085106103d9576040517f08c379a00000000000000000000000000000000000000000000000000000000081526004016103d090612019565b60405180910390fd5b6000600286815481106103ef576103ee612039565b5b90600052602060002090600402016040518060800160405290816000820160009054906101000a900473ffffffffffffffffffffffffffffffffffffffff1673ffffffffffffffffffffffffffffffffffffffff1673ffffffffffffffffffffffffffffffffffffffff16815260200160018201805461046e90612097565b80601f016020809104026020016040519081016040528092919081815260200182805461049a90612097565b80156104e75780601f106104bc576101008083540402835291602001916104e7565b820191906000526020600020905b8154815290600101906020018083116104ca57829003601f168201915b5050505050815260200160028201805461050090612097565b80601f016020809104026020016040519081016040528092919081815260200182805461052c90612097565b80156105795780601f1061054e57610100808354040283529160200191610579565b820191906000526020600020905b81548152906001019060200180831161055c57829003601f168201915b5050505050815260200160038201805461059290612097565b80601f01602080910402602001604051908101604052809291908181526020018280546105be90612097565b801561060b5780601f106105e05761010080835404028352916020019161060b565b820191906000526020600020905b8154815290600101906020018083116105ee57829003601f168201915b505050505081525050905080600001518160200151826040015183606001519450945094509450509193509193565b600260405180608001604052803373ffffffffffffffffffffffffffffffffffffffff16815260200185815260200184815260200183815250908060018154018082558091505060019003906000526020600020906004020160009091909190915060008201518160000160006101000a81548173ffffffffffffffffffffffffffffffffffffffff021916908373ffffffffffffffffffffffffffffffffffffffff16021790555060208201518160010190805190602001906106ff929190611708565b50604082015181600201908051906020019061071c929190611708565b506060820151816003019080519060200190610739929190611708565b5050503373ffffffffffffffffffffffffffffffffffffffff167fe5b00ccb696675862d0bc5f94d2ee2638744a05f9d56e66f26daf5c1d7f18e4a84848460405161078693929190611c76565b60405180910390a2505050565b60008060003373ffffffffffffffffffffffffffffffffffffffff1673ffffffffffffffffffffffffffffffffffffffff1681526020019081526020016000209050838160030190805190602001906107ed929190611708565b5082816004019080519060200190610806929190611708565b508181600501908051906020019061081f929190611708565b503373ffffffffffffffffffffffffffffffffffffffff167f21cf71043940d9d8c974d471fd271e0d83bc6870a0dac031175376c5b2259d3185858560405161086a93929190611c76565b60405180910390a250505050565b6000600280549050905090565b6002818154811061089557600080fd5b90600052602060002090600402016000915090508060000160009054906101000a900473ffffffffffffffffffffffffffffffffffffffff16908060010180546108de90612097565b80601f016020809104026020016040519081016040528092919081815260200182805461090a90612097565b80156109575780601f1061092c57610100808354040283529160200191610957565b820191906000526020600020905b81548152906001019060200180831161093a57829003601f168201915b50505050509080600201805461096c90612097565b80601f016020809104026020016040519081016040528092919081815260200182805461099890612097565b80156109e55780601f106109ba576101008083540402835291602001916109e5565b820191906000526020600020905b8154815290600101906020018083116109c857829003601f168201915b5050505050908060030180546109fa90612097565b80601f0160208091040260200160405190810160405280929190818152602001828054610a2690612097565b8015610a735780601f10610a4857610100808354040283529160200191610a73565b820191906000526020600020905b815481529060010190602001808311610a5657829003601f168201915b5050505050905084565b60606000808373ffffffffffffffffffffffffffffffffffffffff1673ffffffffffffffffffffffffffffffffffffffff1681526020019081526020016000206000018054610acb90612097565b80601f0160208091040260200160405190810160405280929190818152602001828054610af790612097565b8015610b445780601f10610b1957610100808354040283529160200191610b44565b820191906000526020600020905b815481529060010190602001808311610b2757829003601f168201915b50505050509050919050565b60016020528160005260406000208181548110610b6c57600080fd5b90600052602060002001600091509150508060000160009054906101000a900473ffffffffffffffffffffffffffffffffffffffff16908060000160149054906101000a900460ff16905082565b60005b600160003373ffffffffffffffffffffffffffffffffffffffff1673ffffffffffffffffffffffffffffffffffffffff16815260200190815260200160002080549050811015610d44578173ffffffffffffffffffffffffffffffffffffffff16600160003373ffffffffffffffffffffffffffffffffffffffff1673ffffffffffffffffffffffffffffffffffffffff1681526020019081526020016000208281548110610c6f57610c6e612039565b5b9060005260206000200160000160009054906101000a900473ffffffffffffffffffffffffffffffffffffffff1673ffffffffffffffffffffffffffffffffffffffff161415610d31576000600160003373ffffffffffffffffffffffffffffffffffffffff1673ffffffffffffffffffffffffffffffffffffffff1681526020019081526020016000208281548110610d0c57610d0b612039565b5b9060005260206000200160000160146101000a81548160ff0219169083151502179055505b8080610d3c906120f8565b915050610bbd565b5050565b600360009054906101000a900473ffffffffffffffffffffffffffffffffffffffff1681565b606080606060008060008673ffffffffffffffffffffffffffffffffffffffff1673ffffffffffffffffffffffffffffffffffffffff1681526020019081526020016000209050806003018160040182600501828054610dcd90612097565b80601f0160208091040260200160405190810160405280929190818152602001828054610df990612097565b8015610e465780601f10610e1b57610100808354040283529160200191610e46565b820191906000526020600020905b815481529060010190602001808311610e2957829003601f168201915b50505050509250818054610e5990612097565b80601f0160208091040260200160405190810160405280929190818152602001828054610e8590612097565b8015610ed25780601f10610ea757610100808354040283529160200191610ed2565b820191906000526020600020905b815481529060010190602001808311610eb557829003601f168201915b50505050509150808054610ee590612097565b80601f0160208091040260200160405190810160405280929190818152602001828054610f1190612097565b8015610f5e5780601f10610f3357610100808354040283529160200191610f5e565b820191906000526020600020905b815481529060010190602001808311610f4157829003601f168201915b50505050509050935093509350509193909250565b6000602052806000526040600020600091509050806000018054610f9690612097565b80601f0160208091040260200160405190810160405280929190818152602001828054610fc290612097565b801561100f5780601f10610fe45761010080835404028352916020019161100f565b820191906000526020600020905b815481529060010190602001808311610ff257829003601f168201915b50505050509080600201805461102490612097565b80601f016020809104026020016040519081016040528092919081815260200182805461105090612097565b801561109d5780601f106110725761010080835404028352916020019161109d565b820191906000526020600020905b81548152906001019060200180831161108057829003601f168201915b5050505050908060030180546110b290612097565b80601f01602080910402602001604051908101604052809291908181526020018280546110de90612097565b801561112b5780601f106111005761010080835404028352916020019161112b565b820191906000526020600020905b81548152906001019060200180831161110e57829003601f168201915b50505050509080600401805461114090612097565b80601f016020809104026020016040519081016040528092919081815260200182805461116c90612097565b80156111b95780601f1061118e576101008083540402835291602001916111b9565b820191906000526020600020905b81548152906001019060200180831161119c57829003601f168201915b5050505050908060050180546111ce90612097565b80601f01602080910402602001604051908101604052809291908181526020018280546111fa90612097565b80156112475780601f1061121c57610100808354040283529160200191611247565b820191906000526020600020905b81548152906001019060200180831161122a57829003601f168201915b5050505050905085565b60008060003373ffffffffffffffffffffffffffffffffffffffff1673ffffffffffffffffffffffffffffffffffffffff168152602001908152602001600020905080600101829080600181540180825580915050600190039060005260206000200160009091909190915090805190602001906112d0929190611708565b505050565b6060600160003373ffffffffffffffffffffffffffffffffffffffff1673ffffffffffffffffffffffffffffffffffffffff168152602001908152602001600020805480602002602001604051908101604052809291908181526020016000905b828210156113d5578382906000526020600020016040518060400160405290816000820160009054906101000a900473ffffffffffffffffffffffffffffffffffffffff1673ffffffffffffffffffffffffffffffffffffffff1673ffffffffffffffffffffffffffffffffffffffff1681526020016000820160149054906101000a900460ff16151515158152505081526020019060010190611336565b50505050905090565b60008060003373ffffffffffffffffffffffffffffffffffffffff1673ffffffffffffffffffffffffffffffffffffffff168152602001908152602001600020905081816000019080519060200190611438929190611708565b505050565b60008060003373ffffffffffffffffffffffffffffffffffffffff1673ffffffffffffffffffffffffffffffffffffffff168152602001908152602001600020905081816002019080519060200190611497929190611708565b503373ffffffffffffffffffffffffffffffffffffffff167ff8b43a96e64d970c3026d15217d02b6fd13625f9b23fa9a865bc15324de553df836040516114de9190611bb5565b60405180910390a25050565b606060008060008473ffffffffffffffffffffffffffffffffffffffff1673ffffffffffffffffffffffffffffffffffffffff168152602001908152602001600020905080600101805480602002602001604051908101604052809291908181526020016000905b828210156115fe57838290600052602060002001805461157190612097565b80601f016020809104026020016040519081016040528092919081815260200182805461159d90612097565b80156115ea5780601f106115bf576101008083540402835291602001916115ea565b820191906000526020600020905b8154815290600101906020018083116115cd57829003601f168201915b505050505081526020019060010190611552565b50505050915050919050565b600160003373ffffffffffffffffffffffffffffffffffffffff1673ffffffffffffffffffffffffffffffffffffffff16815260200190815260200160002060405180604001604052808373ffffffffffffffffffffffffffffffffffffffff168152602001600115158152509080600181540180825580915050600190039060005260206000200160009091909190915060008201518160000160006101000a81548173ffffffffffffffffffffffffffffffffffffffff021916908373ffffffffffffffffffffffffffffffffffffffff16021790555060208201518160000160146101000a81548160ff021916908315150217905550505050565b82805461171490612097565b90600052602060002090601f016020900481019282611736576000855561177d565b82601f1061174f57805160ff191683800117855561177d565b8280016001018555821561177d579182015b8281111561177c578251825591602001919060010190611761565b5b50905061178a919061178e565b5090565b5b808211156117a757600081600090555060010161178f565b5090565b6000604051905090565b600080fd5b600080fd5b6000819050919050565b6117d2816117bf565b81146117dd57600080fd5b50565b6000813590506117ef816117c9565b92915050565b60006020828403121561180b5761180a6117b5565b5b6000611819848285016117e0565b91505092915050565b600073ffffffffffffffffffffffffffffffffffffffff82169050919050565b600061184d82611822565b9050919050565b61185d81611842565b82525050565b600081519050919050565b600082825260208201905092915050565b60005b8381101561189d578082015181840152602081019050611882565b838111156118ac576000848401525b50505050565b6000601f19601f8301169050919050565b60006118ce82611863565b6118d8818561186e565b93506118e881856020860161187f565b6118f1816118b2565b840191505092915050565b60006080820190506119116000830187611854565b818103602083015261192381866118c3565b9050818103604083015261193781856118c3565b9050818103606083015261194b81846118c3565b905095945050505050565b600080fd5b600080fd5b7f4e487b7100000000000000000000000000000000000000000000000000000000600052604160045260246000fd5b611998826118b2565b810181811067ffffffffffffffff821117156119b7576119b6611960565b5b80604052505050565b60006119ca6117ab565b90506119d6828261198f565b919050565b600067ffffffffffffffff8211156119f6576119f5611960565b5b6119ff826118b2565b9050602081019050919050565b82818337600083830152505050565b6000611a2e611a29846119db565b6119c0565b905082815260208101848484011115611a4a57611a4961195b565b5b611a55848285611a0c565b509392505050565b600082601f830112611a7257611a71611956565b5b8135611a82848260208601611a1b565b91505092915050565b600080600060608486031215611aa457611aa36117b5565b5b600084013567ffffffffffffffff811115611ac257611ac16117ba565b5b611ace86828701611a5d565b935050602084013567ffffffffffffffff811115611aef57611aee6117ba565b5b611afb86828701611a5d565b925050604084013567ffffffffffffffff811115611b1c57611b1b6117ba565b5b611b2886828701611a5d565b9150509250925092565b611b3b816117bf565b82525050565b6000602082019050611b566000830184611b32565b92915050565b611b6581611842565b8114611b7057600080fd5b50565b600081359050611b8281611b5c565b92915050565b600060208284031215611b9e57611b9d6117b5565b5b6000611bac84828501611b73565b91505092915050565b60006020820190508181036000830152611bcf81846118c3565b905092915050565b60008060408385031215611bee57611bed6117b5565b5b6000611bfc85828601611b73565b9250506020611c0d858286016117e0565b9150509250929050565b60008115159050919050565b611c2c81611c17565b82525050565b6000604082019050611c476000830185611854565b611c546020830184611c23565b9392505050565b6000602082019050611c706000830184611854565b92915050565b60006060820190508181036000830152611c9081866118c3565b90508181036020830152611ca481856118c3565b90508181036040830152611cb881846118c3565b9050949350505050565b600060a0820190508181036000830152611cdc81886118c3565b90508181036020830152611cf081876118c3565b90508181036040830152611d0481866118c3565b90508181036060830152611d1881856118c3565b90508181036080830152611d2c81846118c3565b90509695505050505050565b600060208284031215611d4e57611d4d6117b5565b5b600082013567ffffffffffffffff811115611d6c57611d6b6117ba565b5b611d7884828501611a5d565b91505092915050565b600081519050919050565b600082825260208201905092915050565b6000819050602082019050919050565b611db681611842565b82525050565b611dc581611c17565b82525050565b604082016000820151611de16000850182611dad565b506020820151611df46020850182611dbc565b50505050565b6000611e068383611dcb565b60408301905092915050565b6000602082019050919050565b6000611e2a82611d81565b611e348185611d8c565b9350611e3f83611d9d565b8060005b83811015611e70578151611e578882611dfa565b9750611e6283611e12565b925050600181019050611e43565b5085935050505092915050565b60006020820190508181036000830152611e978184611e1f565b905092915050565b600081519050919050565b600082825260208201905092915050565b6000819050602082019050919050565b600082825260208201905092915050565b6000611ee782611863565b611ef18185611ecb565b9350611f0181856020860161187f565b611f0a816118b2565b840191505092915050565b6000611f218383611edc565b905092915050565b6000602082019050919050565b6000611f4182611e9f565b611f4b8185611eaa565b935083602082028501611f5d85611ebb565b8060005b85811015611f995784840389528151611f7a8582611f15565b9450611f8583611f29565b925060208a01995050600181019050611f61565b50829750879550505050505092915050565b60006020820190508181036000830152611fc58184611f36565b905092915050565b7f496e76616c696420666565646261636b20696e64657800000000000000000000600082015250565b600061200360168361186e565b915061200e82611fcd565b602082019050919050565b6000602082019050818103600083015261203281611ff6565b9050919050565b7f4e487b7100000000000000000000000000000000000000000000000000000000600052603260045260246000fd5b7f4e487b7100000000000000000000000000000000000000000000000000000000600052602260045260246000fd5b600060028204905060018216806120af57607f821691505b602082108114156120c3576120c2612068565b5b50919050565b7f4e487b7100000000000000000000000000000000000000000000000000000000600052601160045260246000fd5b6000612103826117bf565b91507fffffffffffffffffffffffffffffffffffffffffffffffffffffffffffffffff821415612136576121356120c9565b5b60018201905091905056fea2646970667358221220fcf33bbdfa9bdb7bf75d7c63377588774f2e74a91564f05551d1461ffc4a88f264736f6c63430008090033",
  "linkReferences": {},
  "deployedLinkReferences": {}
}